{
  "_format": "hh-sol-artifact-1",
  "contractName": "EnergyTrading",
  "sourceName": "contracts/EnergyTrading.sol",
  "abi": [
    {
      "anonymous": false,
      "inputs": [
        {
          "indexed": false,
          "internalType": "uint256",
          "name": "listingId",
          "type": "uint256"
        },
        {
          "indexed": false,
          "internalType": "address",
          "name": "producer",
          "type": "address"
        }
      ],
      "name": "ListingAdded",
      "type": "event"
    },
    {
      "anonymous": false,
      "inputs": [
        {
          "indexed": false,
          "internalType": "uint256",
          "name": "listingId",
          "type": "uint256"
        },
        {
          "indexed": false,
          "internalType": "address",
          "name": "buyer",
          "type": "address"
        },
        {
          "indexed": false,
          "internalType": "uint256",
          "name": "units",
          "type": "uint256"
        }
      ],
      "name": "UnitsPurchased",
      "type": "event"
    },
    {
      "inputs": [
        {
          "internalType": "uint256",
          "name": "units",
          "type": "uint256"
        },
        {
          "internalType": "uint256",
          "name": "pricePerUnit",
          "type": "uint256"
        },
        {
          "internalType": "uint256",
          "name": "listingPeriod",
          "type": "uint256"
        }
      ],
      "name": "addListing",
      "outputs": [],
      "stateMutability": "nonpayable",
      "type": "function"
    },
    {
      "inputs": [
        {
          "internalType": "uint256",
          "name": "listingId",
          "type": "uint256"
        },
        {
          "internalType": "uint256",
          "name": "unitsToBuy",
          "type": "uint256"
        }
      ],
      "name": "buyUnits",
      "outputs": [],
      "stateMutability": "payable",
      "type": "function"
    },
    {
      "inputs": [
        {
          "internalType": "address",
          "name": "",
          "type": "address"
        }
      ],
      "name": "buyers",
      "outputs": [
        {
          "internalType": "uint256",
          "name": "unitsToBuy",
          "type": "uint256"
        },
        {
          "internalType": "address",
          "name": "consumer",
          "type": "address"
        },
        {
          "internalType": "uint256",
          "name": "amount",
          "type": "uint256"
        }
      ],
      "stateMutability": "view",
      "type": "function"
    },
    {
      "inputs": [
        {
          "internalType": "uint256",
          "name": "listingId",
          "type": "uint256"
        }
      ],
      "name": "checkListing",
      "outputs": [],
      "stateMutability": "nonpayable",
      "type": "function"
    },
    {
      "inputs": [],
      "name": "getAllListingIds",
      "outputs": [
        {
          "internalType": "uint256[]",
          "name": "",
          "type": "uint256[]"
        }
      ],
      "stateMutability": "view",
      "type": "function"
    },
    {
      "inputs": [
        {
          "internalType": "uint256",
          "name": "listingId",
          "type": "uint256"
        }
      ],
      "name": "getListingDetails",
      "outputs": [
        {
          "internalType": "uint256",
          "name": "",
          "type": "uint256"
        },
        {
          "internalType": "uint256",
          "name": "",
          "type": "uint256"
        },
        {
          "internalType": "uint256",
          "name": "",
          "type": "uint256"
        },
        {
          "internalType": "uint256",
          "name": "",
          "type": "uint256"
        },
        {
          "internalType": "uint256",
          "name": "",
          "type": "uint256"
        },
        {
          "internalType": "address",
          "name": "",
          "type": "address"
        },
        {
          "internalType": "enum EnergyTrading.Status",
          "name": "",
          "type": "uint8"
        }
      ],
      "stateMutability": "view",
      "type": "function"
    },
    {
      "inputs": [
        {
          "internalType": "uint256",
          "name": "",
          "type": "uint256"
        }
      ],
      "name": "producers",
      "outputs": [
        {
          "internalType": "uint256",
          "name": "listingId",
          "type": "uint256"
        },
        {
          "internalType": "uint256",
          "name": "units",
          "type": "uint256"
        },
        {
          "internalType": "uint256",
          "name": "pricePerUnit",
          "type": "uint256"
        },
        {
          "internalType": "uint256",
          "name": "listingPeriod",
          "type": "uint256"
        },
        {
          "internalType": "uint256",
          "name": "timestamp",
          "type": "uint256"
        },
        {
          "internalType": "address",
          "name": "producer",
          "type": "address"
        },
        {
          "internalType": "enum EnergyTrading.Status",
          "name": "status",
          "type": "uint8"
        }
      ],
      "stateMutability": "view",
      "type": "function"
    }
  ],
  "bytecode": "0x608060405234801561001057600080fd5b50610e37806100206000396000f3fe6080604052600436106100705760003560e01c806397a993aa1161004e57806397a993aa146100f25780639b68ade714610131578063ee1ce0e214610174578063fb05da2e1461019057610070565b80630b33bc4a146100755780635443b28a1461009e57806385dd3008146100c7575b600080fd5b34801561008157600080fd5b5061009c600480360381019061009791906108b8565b6101d3565b005b3480156100aa57600080fd5b506100c560048036038101906100c0919061090b565b610345565b005b3480156100d357600080fd5b506100dc6103f1565b6040516100e991906109f6565b60405180910390f35b3480156100fe57600080fd5b5061011960048036038101906101149190610a76565b6104a4565b60405161012893929190610ac1565b60405180910390f35b34801561013d57600080fd5b506101586004803603810190610153919061090b565b6104ee565b60405161016b9796959493929190610b6f565b60405180910390f35b61018e60048036038101906101899190610bde565b61055d565b005b34801561019c57600080fd5b506101b760048036038101906101b2919061090b565b6107a2565b6040516101ca9796959493929190610b6f565b60405180910390f35b6101dd600061082d565b60006101e96000610843565b90506040518060e001604052808281526020018581526020018481526020018381526020014281526020013373ffffffffffffffffffffffffffffffffffffffff1681526020016000600281111561024457610243610af8565b5b81525060016000838152602001908152602001600020600082015181600001556020820151816001015560408201518160020155606082015181600301556080820151816004015560a08201518160050160006101000a81548173ffffffffffffffffffffffffffffffffffffffff021916908373ffffffffffffffffffffffffffffffffffffffff16021790555060c08201518160050160146101000a81548160ff021916908360028111156102fe576102fd610af8565b5b02179055509050507ff729e78ef8a3b033fd7a5b90e14fa2ddbedc2145c2eb7566539dd7a982452cb48133604051610337929190610c1e565b60405180910390a150505050565b60006001600083815260200190815260200160002090506103778160030154826004015461085190919063ffffffff16565b421180156103ba57506000600281111561039457610393610af8565b5b8160050160149054906101000a900460ff1660028111156103b8576103b7610af8565b5b145b156103ed5760018160050160146101000a81548160ff021916908360028111156103e7576103e6610af8565b5b02179055505b5050565b606060006103ff6000610843565b67ffffffffffffffff81111561041857610417610c47565b5b6040519080825280602002602001820160405280156104465781602001602082028036833780820191505090505b50905060005b6104566000610843565b81101561049c5760018161046a9190610ca5565b82828151811061047d5761047c610cd9565b5b602002602001018181525050808061049490610d08565b91505061044c565b508091505090565b60026020528060005260406000206000915090508060000154908060010160009054906101000a900473ffffffffffffffffffffffffffffffffffffffff16908060020154905083565b60016020528060005260406000206000915090508060000154908060010154908060020154908060030154908060040154908060050160009054906101000a900473ffffffffffffffffffffffffffffffffffffffff16908060050160149054906101000a900460ff16905087565b600060016000848152602001908152602001600020905061058f8160030154826004015461085190919063ffffffff16565b42106105d0576040517f08c379a00000000000000000000000000000000000000000000000000000000081526004016105c790610dad565b60405180910390fd5b6105e782826001015461086790919063ffffffff16565b816001018190555060008160010154036106295760028160050160146101000a81548160ff0219169083600281111561062357610622610af8565b5b02179055505b60405180606001604052808381526020013373ffffffffffffffffffffffffffffffffffffffff16815260200134815250600260003373ffffffffffffffffffffffffffffffffffffffff1673ffffffffffffffffffffffffffffffffffffffff1681526020019081526020016000206000820151816000015560208201518160010160006101000a81548173ffffffffffffffffffffffffffffffffffffffff021916908373ffffffffffffffffffffffffffffffffffffffff160217905550604082015181600201559050508060050160009054906101000a900473ffffffffffffffffffffffffffffffffffffffff1673ffffffffffffffffffffffffffffffffffffffff166108fc349081150290604051600060405180830381858888f19350505050158015610761573d6000803e3d6000fd5b507f5544f65263d4da16b729d2f6e50848119cb19c80e349145d7c076ea07c3708cf83338460405161079593929190610ac1565b60405180910390a1505050565b600080600080600080600080600160008a81526020019081526020016000209050806000015481600101548260020154836003015484600401548560050160009054906101000a900473ffffffffffffffffffffffffffffffffffffffff168660050160149054906101000a900460ff16975097509750975097509750975050919395979092949650565b6001816000016000828254019250508190555050565b600081600001549050919050565b6000818361085f9190610ca5565b905092915050565b600081836108759190610dcd565b905092915050565b600080fd5b6000819050919050565b61089581610882565b81146108a057600080fd5b50565b6000813590506108b28161088c565b92915050565b6000806000606084860312156108d1576108d061087d565b5b60006108df868287016108a3565b93505060206108f0868287016108a3565b9250506040610901868287016108a3565b9150509250925092565b6000602082840312156109215761092061087d565b5b600061092f848285016108a3565b91505092915050565b600081519050919050565b600082825260208201905092915050565b6000819050602082019050919050565b61096d81610882565b82525050565b600061097f8383610964565b60208301905092915050565b6000602082019050919050565b60006109a382610938565b6109ad8185610943565b93506109b883610954565b8060005b838110156109e95781516109d08882610973565b97506109db8361098b565b9250506001810190506109bc565b5085935050505092915050565b60006020820190508181036000830152610a108184610998565b905092915050565b600073ffffffffffffffffffffffffffffffffffffffff82169050919050565b6000610a4382610a18565b9050919050565b610a5381610a38565b8114610a5e57600080fd5b50565b600081359050610a7081610a4a565b92915050565b600060208284031215610a8c57610a8b61087d565b5b6000610a9a84828501610a61565b91505092915050565b610aac81610882565b82525050565b610abb81610a38565b82525050565b6000606082019050610ad66000830186610aa3565b610ae36020830185610ab2565b610af06040830184610aa3565b949350505050565b7f4e487b7100000000000000000000000000000000000000000000000000000000600052602160045260246000fd5b60038110610b3857610b37610af8565b5b50565b6000819050610b4982610b27565b919050565b6000610b5982610b3b565b9050919050565b610b6981610b4e565b82525050565b600060e082019050610b84600083018a610aa3565b610b916020830189610aa3565b610b9e6040830188610aa3565b610bab6060830187610aa3565b610bb86080830186610aa3565b610bc560a0830185610ab2565b610bd260c0830184610b60565b98975050505050505050565b60008060408385031215610bf557610bf461087d565b5b6000610c03858286016108a3565b9250506020610c14858286016108a3565b9150509250929050565b6000604082019050610c336000830185610aa3565b610c406020830184610ab2565b9392505050565b7f4e487b7100000000000000000000000000000000000000000000000000000000600052604160045260246000fd5b7f4e487b7100000000000000000000000000000000000000000000000000000000600052601160045260246000fd5b6000610cb082610882565b9150610cbb83610882565b9250828201905080821115610cd357610cd2610c76565b5b92915050565b7f4e487b7100000000000000000000000000000000000000000000000000000000600052603260045260246000fd5b6000610d1382610882565b91507fffffffffffffffffffffffffffffffffffffffffffffffffffffffffffffffff8203610d4557610d44610c76565b5b600182019050919050565b600082825260208201905092915050565b7f4c697374696e672068617320657870697265642e000000000000000000000000600082015250565b6000610d97601483610d50565b9150610da282610d61565b602082019050919050565b60006020820190508181036000830152610dc681610d8a565b9050919050565b6000610dd882610882565b9150610de383610882565b9250828203905081811115610dfb57610dfa610c76565b5b9291505056fea264697066735822122054eeea349f84c42a2d4fcd8821eca37e71a3e6098ffdae7e5bc6d7713d49f81764736f6c63430008130033",
  "linkReferences": {},
  "deployedLinkReferences": {}
}